:1000000014C047C12CC12CC02BC02AC0EEC028C0D0
:1000100027C026C025C024C023C022C021C020C0C4
:100020001FC01EC01DC01CC01BC011241FBECFE5B9
:10003000D1E0DEBFCDBF10E0A0E6B0E0E8E4F3E041
:1000400002C005900D92A236B107D9F720E0A2E6D2
:10005000B0E001C01D92AE36B207E1F73DD172C1EA
:10006000CFCF80916600909167008230910579F141
:1000700034F4009709F449C0019759F00895843089
:10008000910509F489C00CF45CC0059709F46EC0B1
:1000900008958EE190E0909361008093600010924B
:1000A00065001092640080916C0090916D00892B26
:1000B00021F098B388E0892788BB80916A009091ED
:1000C0006B00069709F090C082E090E081C08DE35C
:1000D00090E09093610080936000C398C19A8091F2
:1000E0006A0090916B00019709F07EC01092630046
:1000F0001092620010926B0010926A0083E090E010
:1001000090936900809368000895C39A88B3806AC9
:1001100088BBC19882E692E0909361008093600072
:1001200080916400909165008130910509F05CC078
:1001300020916A0030916B00121613060CF448C02F
:1001400053C082E692E0909361008093600088B390
:10015000806588BBC598C79880916A0090916B00B4
:10016000019709F041C084E090E032C086E490E05D
:100170009093610080936000C498C69888B3806AA9
:1001800088BB80916A0090916B00019769F510928D
:1001900069001092680020C08EE190E090936100A9
:1001A0008093600080916C0090916D00892B41F0EC
:1001B00098B380E1892788BB98B380E4892788BBFE
:1001C00080916A0090916B00069771F485E090E051
:1001D000909369008093680010926300109262000F
:1001E00010926B0010926A0008951F920F920FB642
:1001F0000F9211242F933F938F939F9380916200CE
:100200009091630020916000309161008217930704
:10021000A1F481E090E090936D0080936C00809158
:100220006A0090916B00019690936B0080936A0036
:10023000109263001092620009C0019690936300CF
:100240008093620010926D0010926C009F918F91CC
:100250003F912F910F900FBE0F901F9018951F92F6
:100260000F920FB60F9211248F939F938091660087
:1002700090916700892B31F481E090E090936500C4
:10028000809364009F918F910F900FBE0F901F90ED
:1002900018951F920F920FB60F9211242F933F9330
:1002A0004F935F936F937F938F939F93AF93BF937E
:1002B000EF93FF93D4DFFF91EF91BF91AF919F91A7
:1002C0008F917F916F915F914F913F912F910F90FF
:1002D0000FBE0F901F9018958BEF87BB789412BEBE
:1002E00089B7826089BF10BE13BE83B7846083BFA5
:1002F00083B7816083BF8BB7806C8BBF85B78E60FF
:1003000085BF18BA10926D0010926C0010926900AF
:1003100010926800109265001092640010926B00B9
:1003200010926A0082ED90E09093610080936000EB
:1003300080916800909169009093670080936600B7
:0803400090DEF6CFF894FFCF28
:020348003C0077
:00000001FF
