:020000040000FA
:10000000000002280A30AE000230AF00803000004D
:100010000000C2210000000083120000C8002F0869
:10002000C7000C30C9000230CA0083120000470824
:10003000CB004808CC00FF30C707031CC8034C089E
:100040004B0403199A2804304907CB00CC01CC0D8E
:100050004A08CC074B08AE004C08AF0080300000C7
:100060000000C2210000000083120000CE002F0813
:10007000CD004908AE004A08AF0080300000000003
:10008000C2210000000083120000D000CC002F0825
:10009000CB00CF0002304907CB00CC01CC0D4A0881
:1000A000CC074B08AE004C08AF00803000000000C9
:1000B000C2210000000083120000CC00D2002F08F3
:1000C000D100CB00831200004D08D1004E08D200B1
:1000D000FF30CD07031CCE035208510403199328A7
:1000E0004F08AE005008AF00803000000000AF2184
:1000F0000000000083120000D1004B08831203139C
:1001000084008313831200004C1883175108831254
:100110000313800083120000CF0A0319D00ACB0A10
:100120000319CC0A6228063083120000C90703189D
:10013000CA0A15280000000028290800BE002F0860
:10014000BD003E04031DAA28831205108510051169
:10015000851227293D08013A031DB8283E08003AB8
:10016000031DB8288312051485100511851227294F
:100170003D08023A031DC6283E08003A031DC62862
:100180008312051085140511851227293D08033AAD
:10019000031DD4283E08003A031DD42883120514F9
:1001A00085140511851227293D08043A031DE2280C
:1001B0003E08003A031DE22883120510851005153C
:1001C000851227293D08053A031DF0283E08003A0C
:1001D000031DF028831205148510051585122729A3
:1001E0003D08063A031DFE283E08003A031DFE287E
:1001F0008312051085140515851227293D08073A35
:10020000031D0C293E08003A031D0C298312051416
:1002100085140515851227293D08083A031D1A295A
:100220003E08003A031D1A29831205108510051196
:10023000851627293D08093A031D27293E08003A5B
:10024000031D272983120514851005118516080042
:1002500083169F0107308312990083169901083095
:10026000850083128501B001B101B201B301B4016F
:10027000B501B601B701B801B901B40A0319B50A4D
:1002800001303607BA00BB01BB0D3708BB07003091
:100290003502031D4D290A303402031C5129B401D3
:1002A000B50100303B02031D57290A303A02031CF6
:1002B0005B29BA01BB01831205163008AF00310873
:1002C0009E200130AF000030E32183120512320876
:1002D000AF0033089E2001303A07B600B701B70DD2
:1002E0003B08B7070130AF000030E321BA018312A9
:1002F0008519BA0A3A08013A031D3D290130BA00AE
:10030000BB01B80A0319B90A3A08013A031D9F292B
:100310003B08003A031D9F293408B0003508B1009E
:100320003608B2003708B300BC0183128519BC0A35
:100330003C08013A031D8429BA01BB01842900301D
:100340003902031DA529A0303802031C3D290930BC
:10035000B000B1010930B200B3013D290800003AF4
:100360000319B629803A0319BD2900342E088400E8
:1003700083132F188317000808002F088A002E08FF
:1003800082000800003A0319CA29803A0319D429C7
:10039000AF0100342E08840083132F188317000840
:1003A000AF00840A0008080000000000BD21AD0075
:1003B000AE0FAF03AF0A00000000BD21AC002D0856
:1003C000AF002C080800C0002F08BF00C101C20107
:1003D00040084202031DEE293F0841020318092A82
:1003E000FB30C3000430C400FF304307C500FF30BA
:1003F000C60044080318440FC6074508C300460852
:10040000C40046084504031DF429C10A0319C20AA1
:10041000E829080001340034123402345334003423
:0604200001340034003439
:02400E00D73F9A
:00000001FF
