:100000000C940F030C9437030C9437030C943703B0
:100010000C9437030C9437030C9437030C94370378
:100020000C9437030C9437030C9437030C94370368
:100030000C9437030C9437030C9437030C94370358
:100040000C94730F0C9437030C94E30F0C94BD0FB6
:100050000C9437030C9437030C9437030C94370338
:100060000C9415100C94370308000000BE9224492C
:10007000123EABAAAA2ABECDCCCC4C3E00000080DA
:10008000BEABAAAAAA3E00000000BF000000803F4D
:100090000000000000084178D3BB4387D1133D190D
:1000A0000E3CC3BD4282AD2B3E68EC8276BED98F3A
:1000B000E1A93E4C80EFFFBE01C4FF7F3F0000007E
:1000C000000000000000003E5B4F5B3E3E6B4F6B4C
:1000D0003E1C3E7C3E1C183C7E3C181C577D571C29
:1000E0001C5E7F5E1C00183C1800FFE7C3E7FF00A2
:1000F00018241800FFE7DBE7FF30483A060E2629F0
:10010000792926407F050507407F05253F5A3CE7B2
:100110003C5A7F3E1C1C08081C1C3E7F14227F2278
:10012000145F5F005F5F06097F017F006689956A43
:10013000606060606094A2FFA29408047E040810CE
:10014000207E201008082A1C08081C2A08081E10F7
:100150001010100C1E0C1E0C30383E3830060E3EAF
:100160000E06000000000000005F0000000700070E
:1001700000147F147F14242A7F2A12231308646238
:1001800036495620500008070300001C2241000099
:1001900041221C002A1C7F1C2A08083E08080080F7
:1001A000703000080808080800006060002010088F
:1001B00004023E5149453E00427F40007249494990
:1001C000462141494D331814127F102745454539C2
:1001D0003C4A4949314121110907364949493646C6
:1001E0004949291E000014000000403400000008A6
:1001F0001422411414141414004122140802015949
:1002000009063E415D594E7C1211127C7F494949D5
:10021000363E414141227F4141413E7F494949416A
:100220007F090909013E414151737F0808087F0099
:10023000417F41002040413F017F081422417F401F
:100240004040407F021C027F7F0408107F3E4141F6
:10025000413E7F090909063E4151215E7F09192966
:1002600046264949493203017F01033F4040403F50
:100270001F2040201F3F4038403F63140814630391
:10028000047804036159494D43007F414141020410
:10029000081020004141417F040201020440404017
:1002A0004040000307080020545478407F2844440D
:1002B000383844444428384444287F385454541827
:1002C00000087E090218A4A49C787F080404780022
:1002D000447D40002040403D007F10284400004104
:1002E0007F40007C047804787C0804047838444417
:1002F0004438FC1824241818242418FC7C0804040E
:1003000008485454542404043F44243C4040207C76
:100310001C2040201C3C4030403C44281028444CC9
:100320009090907C4464544C440008364100000096
:10033000770000004136080002010204023C262337
:10034000263C1EA1A161123A4040207A38545455EF
:1003500059215555794122545478422155547840B9
:1003600020545579400C1E52721239555555593941
:100370005454545939555454580000457C41000296
:10038000457D420001457C407D1211127DF02825FB
:1003900028F07C545545002054547C547C0A097F35
:1003A0004932494949323A4444443A324A48483049
:1003B0003A4141217A3A42402078009DA0A07D3DFB
:1003C0004242423D3D4040403D3C24FF2424487E83
:1003D0004943662B2FFC2F2BFF0929F620C0887E6E
:1003E000090320545479410000447D413048484A73
:1003F00032384040227A007A0A0A727D0D19317D26
:100400002629292F28262929292630484D402038F9
:100410000808080808080808382F10C8ACBA2F10B8
:100420002834FA00007B000008142A142222142A1F
:1004300014085500550055AA55AA55AAFF55FF5551
:10044000FF000000FF00101010FF00141414FF0044
:100450001010FF00FF1010F010F0141414FC001422
:1004600014F700FF0000FF00FF1414F404FC141440
:1004700017101F10101F101F1414141F001010103D
:10048000F0000000001F101010101F10101010F0CE
:1004900010000000FF101010101010101010FF10AE
:1004A000000000FF140000FF00FF00001F101700F5
:1004B00000FC04F414141710171414F404F40000CE
:1004C000FF00F714141414141414F700F714141480
:1004D000171410101F101F141414F4141010F0101F
:1004E000F000001F101F0000001F14000000FC148B
:1004F0000000F010F01010FF10FF141414FF14107F
:1005000010101F00000000F010FFFFFFFFFFF0F0D1
:10051000F0F0F0FFFFFF0000000000FFFF0F0F0FE3
:100520000F0F3844443844FC4A4A4A347E020206DB
:1005300006027E027E0263554941633844443C040E
:10054000407E201E2006027E020299A5E7A5991C86
:100550002A492A1C4C7201724C304A4D4D303048A9
:10056000784830BC625A463D3E494949007E010107
:10057000017E2A2A2A2A2A44445F444440514A449C
:100580004040444A51400000FF0103E080FF00006A
:1005900008086B6B083612362436060F090F060062
:1005A0000018180000001010003040FF0101001F6B
:1005B00001011E00191D1712003C3C3C3C000000CC
:1005C000000000000000240027002A0000000008AE
:1005D000000201000003040700000000000000000A
:1005E000000000002300260029000102040810205A
:1005F00040800102040810200102040810200000BD
:100600000000250028002B00040404040404040452
:100610000202020202020303030303033011112446
:100620001FBECFEFD8E0DEBFCDBF13E0A0E0B1E04A
:10063000E2EDF7E302C005900D92A837B107D9F7B4
:1006400025E0A8E7B3E001C01D92A730B207E1F7AB
:1006500013E0CFE0D3E004C02197FE010E94B71A57
:10066000CE30D107C9F70E946F120C94E71B0C948F
:100670000000FC0120812EBD0DB407FEFDCF2EB57C
:10068000FC0120830895833081F028F4813099F0B3
:100690008230A9F008958730A9F08830C9F08430FD
:1006A000B1F4809180008F7D03C0809180008F77AE
:1006B00080938000089584B58F7784BD089584B5B4
:1006C0008F7DFBCF8091B0008F778093B00008952D
:1006D0008091B0008F7DF9CF1F93CF93DF93282FA8
:1006E00030E0F901E453FA4F8491F901E651FA4FF1
:1006F000D491F901E85FF94FC491CC23A9F0162FEA
:1007000081110E944303EC2FF0E0EE0FFF1FE25037
:10071000FA4FA591B4918FB7F894EC91111108C0DC
:10072000D095DE23DC938FBFDF91CF911F91089589
:10073000DE2BF8CFCF93DF9390E0FC01E651FA4F28
:100740002491885F994FFC0184918823D1F090E037
:10075000880F991FFC01EE53FA4FA591B491FC014B
:10076000E250FA4FC591D49161110EC09FB7F89431
:100770008C91E22FE0958E238C932881E223E883ED
:100780009FBFDF91CF9108958FB7F894EC91E22B42
:10079000EC938FBFF6CF8E50806480937C00809165
:1007A0007A00806480937A0080917A0086FDFCCF85
:1007B000809178009091790008958230910538F009
:1007C000880F991F880F991F05970197F1F70895D2
:1007D0009F92AF92BF92CF92DF92EF92FF920F93D0
:1007E0001F93CF93DF93EC016B018885998511E00E
:1007F000892B09F010E8F601A0808A2D8123992425
:1008000093948111912C2C813D814E815F8160E216
:1008100071EA87E090E00E949617022FB12CE22E39
:10082000F12C002319F0C7010E94DD038A85877F20
:1008300009F04FC08D858F3F89F09A2D912381E07B
:1008400009F480E0891551F0EF85F8898F899923A3
:10085000D1F19081892B808399249394E989FA8935
:100860008081998D892B8083002319F0C7010E9414
:10087000DD038E858F3F39F0EB89FC898081988D6F
:10088000892309F0B12AE989FA899081898D8095B7
:10089000892380838E858F3F11F0F601B082888591
:1008A0009985892B09F044C0110F1111BACFDF913E
:1008B000CF911F910F91FF90EF90DF90CF90BF905D
:1008C000AF909F9008959081809589238083912C8B
:1008D000C5CFE989FA898081998D892B808300238E
:1008E00019F0C7010E94DD038D858F3F49F0EF8528
:1008F000F8898F899A2D9123B9F09081892B808373
:10090000E989FA899081898D8095892380838E85F4
:100910008F3F09F4BFCFEB89FC898081988D8923B3
:1009200009F4B8CFB12AB6CF908180958923E7CF5B
:100930001695BBCFAF92BF92CF92DF92EF92FF920C
:100940000F931F93CF93DF931F92CDB7DEB78C0128
:100950005B016A01DC018D919C911197892B39F023
:100960001296ED91FC91908181819CBD8DBDF80125
:1009700083858F3F19F060E00E946C037501CA0CFB
:10098000DB1CCE14DF04A9F0D7018D917D01898392
:10099000F80180819181892B29F0CE0101960E9476
:1009A0003903EFCFBE016F5F7F4FC8010E94E8039C
:1009B000E8CFD8011B968C918F3F19F061E00E941F
:1009C0006C0381E00F90DF91CF911F910F91FF9009
:1009D000EF90DF90CF90BF90AF9008953FB7F8941D
:1009E0008091EF039091F003A091F103B091F20395
:1009F00026B5A89B05C02F3F19F00196A11DB11D7A
:100A00003FBFBA2FA92F982F8827BC01CD01620FB5
:100A1000711D811D911D42E0660F771F881F991F70
:100A20004A95D1F708958F929F92AF92BF92CF923D
:100A3000DF92EF92FF924B015C010E94EE046B018A
:100A40007C010E94EE046C197D098E099F09683EA5
:100A5000734081059105A8F321E0821A9108A1084D
:100A6000B10888EEC80E83E0D81EE11CF11C811489
:100A70009104A104B10429F7FF90EF90DF90CF908B
:100A8000BF90AF909F908F900895DC01ED91FC9105
:100A90000190F081E02D0994AF92BF92CF92DF9246
:100AA000EF92FF920F931F93CF93DF936C017B0123
:100AB0008B01040F151FEB015E01AE18BF08C017B4
:100AC000D10759F06991D601ED91FC910190F08127
:100AD000E02DC6010995892B79F7C501DF91CF91EA
:100AE0001F910F91FF90EF90DF90CF90BF90AF904C
:100AF0000895FC01538D448D252F30E0842F90E024
:100B0000821B930B541710F0CF9608950197089508
:100B1000FC01918D828D981761F0A28DAE0FBF2FD1
:100B2000B11D5D968C91928D9F5F9F73928F90E027
:100B300008958FEF9FEF0895FC01918D828D981796
:100B400031F0828DE80FF11D858D90E008958FEFD3
:100B50009FEF0895FC01918D228D892F90E0805C9C
:100B60009F4F821B91098F739927089583EF93E01C
:100B70000E94AA0521E0892B09F420E0822F089524
:100B800080E090E0892B29F00E94B60581110C9439
:100B900000000895FC01A48DA80FB92FB11DA35A20
:100BA000BF4F2C91848D90E001968F739927848F8D
:100BB000A689B7892C93A089B1898C9183708064B0
:100BC0008C93938D848D981306C00288F389E02D51
:100BD00080818F7D80830895EF92FF920F931F9302
:100BE000CF93DF93EC0181E0888F9B8D8C8D9813E0
:100BF0001AC0E889F989808185FF15C09FB7F894EC
:100C0000EE89FF896083E889F98980818370806437
:100C100080839FBF81E090E0DF91CF911F910F9182
:100C2000FF90EF900895F62E0B8D10E00F5F1F4F91
:100C30000F731127E02E8C8D8E110CC00FB607FCA0
:100C4000FACFE889F989808185FFF5CFCE010E942E
:100C5000CA05F1CFEB8DEC0FFD2FF11DE35AFF4FCD
:100C6000F0829FB7F8940B8FEA89FB8980818062BC
:100C7000CFCFCF93DF93EC01888D8823B9F0AA8979
:100C8000BB89E889F9898C9185FD03C0808186FD47
:100C90000DC00FB607FCF7CF8C9185FFF2CF808196
:100CA00085FFEDCFCE010E94CA05E9CFDF91CF913C
:100CB00008950F931F93CF93DF931F92CDB7DEB7A5
:100CC0008C01698360E0FC01868D0E946C0341E029
:100CD00050E0BE016F5F7F4FF801838D948D0E94BD
:100CE0009A040F90DF91CF911F910F910895CF93A8
:100CF0008091F90487FD13C061E00E949A0360E0CF
:100D00008091F9040E946C0361E070E080E090E063
:100D10000E94130561E08091F9040E946C03C09168
:100D2000FC04C83008F0C7E0C093FC0461E28CED1D
:100D300094E00E9459066C2F60618CED94E00E9453
:100D4000590660E28CED94E00E945906C091FB04C4
:100D5000C7FDCFE7C093FB0461E28CED94E00E94F5
:100D600059066C2F60688CED94E00E94590660E291
:100D70008CED94E00E94590660E28CED94E00E94B4
:100D800059066CE08CED94E0CF910C945906FF92DB
:100D90000F931F93CF93DF939091FD04992339F024
:100DA0008091FE048F5F8917E8F58093FE04D0914F
:100DB0000105D695D695D69584E5D89F8001112456
:100DC000809102058695869586958D1780F16D2F09
:100DD00060648CED94E00E945906C091FF04F0908D
:100DE00000056C2F60688CED94E00E94590661E06C
:100DF0008091FA040E946C034F2D50E06C2F70E03C
:100E0000461B570B4F5F5F4F600F711F60507F4F46
:100E10008091F7049091F8040E949A04DF5F0C5AC5
:100E20001F4FCECF1092FE040E947706C0CF60E421
:100E30008CED94E00E94590683E58093FF041092A4
:100E400000058FE28093010510920205DF91CF919A
:100E50001F910F91FF9008951F93CF93DF93EC01A3
:100E6000162F60E20E9459066CE011116DE0CE0170
:100E7000DF91CF911F910C945906FC0177FD55C06D
:100E800080859185681779070CF04FC057FD4DC0DC
:100E900082859385481759070CF047C086898230B0
:100EA00009F444C0833009F44EC0813031F48FE23C
:100EB00090E0861B970BBA01AC01842FA62F93A15B
:100EC000691708F4962F93A394A19A1708F49A2F00
:100ED00094A395A1891708F4982F95A396A1981724
:100EE00008F4982F96A3CA0157FD0796E3E095955D
:100EF0008795EA95E1F7A4E5A89FF001A99FF00D79
:100F00001124E60FF71FE050FF4FCA0168E070E0C0
:100F10000E94881A41E050E001C0440F8A95EAF728
:100F20008081232BB9F0842B8083089583E590E0A2
:100F3000DC01A61BB70BBD018FE290E0DC01A41B16
:100F4000B50BAD01BACF83E590E0841B950BAB01E7
:100F5000BC01B3CF40958423E7CF20919F03260F98
:100F60003327331F21323105ECF42091C303FC01F8
:100F700090E080E0243069F082E00895A0919F0322
:100F80002191AC0141585C4FA40FB52FB11D2C939A
:100F90000196861798F380919F03680F60939F03D3
:100FA00080E0089581E0089508958FEF9FEF089500
:100FB0008FEF9FEF08958091780390E09195819550
:100FC00091090895CF93DF93CB01EA01642F0E942A
:100FD000AD07CE01DF91CF910895CF93DF931F929C
:100FE000CDB7DEB7698361E0CE0101960E94AD07FF
:100FF00081E090E00F90DF91CF9108950895FC017A
:101000006370668B8481958126813781613039F0E8
:10101000633029F09187808733872287089531874D
:1010200020879387828708952F923F924F925F92F5
:101030006F927F928F929F92AF92BF92CF92DF92E8
:10104000EF92FF920F931F93CF93DF93CDB7DEB74D
:101050006A970FB6F894DEBF0FBECDBF9A8F898F07
:101060007A8369834A01D22E18870F833701BC2CFB
:10107000DC0159962D913C915A972115310509F0C3
:1010800015C118968D919C911997681779070CF0E6
:10109000D7C11A968D919C91481759070CF0D0C171
:1010A0004C2C512CB6E0CB9E600D711D11247C8719
:1010B0006B87161617060CF0C3C1EA2DF0E0FA870D
:1010C000E98793E0EE0FFF1F9A95E1F7F88BEF8722
:1010D000CF01840F951F181619060CF0B1C1A98D08
:1010E000BA8D58968C91811104C0BFEABD1508F4E1
:1010F000D394A98DBA8DED91FC9111970284F3855B
:10110000E02DCD010995B5E0DB9EC0011124E981F8
:10111000FA81FC83EB83312C212C9C012E533F4F11
:10112000388F2F8B4A2D50E05E8B4D8BEF89F88DD9
:10113000E20DF31D44919E828D82D12CC12C6981D8
:101140007A81620D731D7A8B698B842F90E09C8B62
:101150008B8BE98DFA8DA081B18140FF82C0F1E0D7
:10116000BF126FC0AF126DC01C96ED91FC912F8124
:101170003885A4014C0D5D1D69897A89898D9A8D08
:101180000995EB89FC89F595E7954E2F5FEFC51A18
:10119000D50A6D817E818D899E89680F791F7E8336
:1011A0006D8398E0C916D10481F6AFEF2A1A3A0A86
:1011B000EB81FC81E40DF51DFC83EB83F5E02F163C
:1011C000310409F0B3CF2F81388526153705B9F0E2
:1011D000A98DBA8DED91FC91B1E0BB1257C0AB1255
:1011E00055C069817A816B5F7F4F0088F189E02D5E
:1011F000830128E030E0A401898D9A8D0995A98D9D
:10120000BA8DED91FC9111970688F789E02DCD01FB
:101210006A960FB6F894DEBF0FBECDBFDF91CF91B7
:101220001F910F91FF90EF90DF90CF90BF90AF9004
:101230009F908F907F906F905F904F903F902F90F6
:1012400009941E96ED91FC91EF80F88409851A852A
:1012500092014D815E816B817C81898D9A8D09958A
:1012600090CF2F8138852615370509F48ACF31E0D4
:10127000B31207C0A31205C01C96ED91FC91930117
:1012800078CF1E96ED91FC917301E0CF6B857C8544
:10129000641975090684F785E02D73010F85188997
:1012A0009201A401898D9A8D0995A9CFF9013496EF
:1012B0009491329745915491D91AB7E0DB9E400D35
:1012C000511D1124F901259134913C8B2B8BFA018E
:1012D00025903490FA013296749031963491398B7E
:1012E000329664903196449041E04C1518F04A15BE
:1012F00008F07FC0662D062C000C770B7C836B8377
:10130000842D042C000C990B9E838D83A98DBA8D9E
:10131000ED91FC9111970284F385E02DCD010995A3
:10132000512CD12CC12CEA2DF0E0FA87E9872B2D26
:1013300030E03C872B87A401440D511D47FC5A9592
:10134000588F4F8B69817A81660D711D67FC7A9584
:101350007E876D877989C71608F051CF2C2D30E034
:101360004D815E81420F531FA985BA854A9FC001F6
:101370004B9F900D5A9F900D1124FC01E80DF91D13
:10138000F88BEF87852D612C4F89588D420F531FA5
:101390005E8B4D8B671408F050C044244394480E74
:1013A000877041F4C1010196EB89FC89E20DF31DC0
:1013B000D4901C01D7FE19C0A98DBA8DED91FC9176
:1013C000662D70E0B1E0BB1219C0AB1217C02D85BD
:1013D0003E85620F731F0484F585E02D2F813885CB
:1013E0004D895E89898D9A8D0995DD0C6394842DD4
:1013F000D1CF1E821D821C821B8288CF4B815C81D3
:10140000640F751FAB85BC856A9FC0016B9F900DF3
:101410007A9F900D112469817A81680F791F068463
:10142000F785E02DEF80F88409851A859D014F85A9
:101430005889898D9A8D0995D8CF570CC3948ACF36
:101440006A960FB6F894DEBF0FBECDBFDF91CF9185
:101450001F910F91FF90EF90DF90CF90BF90AF90D2
:101460009F908F907F906F905F904F903F902F90C4
:1014700008958F929F92AF92CF92EF92FF920F9327
:101480001F93CF93DF93EC01262F898D9A8D0097C0
:1014900009F051C06A30D1F41D861C868D8948E060
:1014A000849F900111248E859F85820F931F9F87B3
:1014B0008E8781E090E0DF91CF911F910F91FF9097
:1014C000EF90CF90AF909F908F9008956D3089F3FB
:1014D000CC88AD888F898823C1F08C859D8536E0C6
:1014E000C39E800D911D11244885598548175907C1
:1014F00064F44E855F851D861C8638E0A39EC0017E
:101500001124840F951F9F878E87EA88FB8808899E
:1015100019894E855F856C857D85CE010E941408F2
:101520002C898C859D8546E0249F800D911D11247A
:101530009D878C87BECF6A3069F41D861C86FC01AE
:101540003896E4912D898E859F85E29F800D911DAF
:101550001124ADCF6D3009F4ACCFFC013496349139
:10156000631708F4A6CF3296E491E61708F4A1CFEA
:10157000FC01329685909490462F431B342F47E010
:10158000349F800C911C1124F401329634913196D1
:10159000E4913323A9F1EE2399F1CC88F401359637
:1015A000E491AD884F89442301F10E2E000CFF0B0E
:1015B000E30FF11DCE9EA001CF9E500D11246C852E
:1015C0007D85460F571F68857985641775076CF40C
:1015D0004E855F851D861C86FC013896E491AE9E83
:1015E000400D511D11245F874E87EA88FB880889CA
:1015F00019894E855F856C857D85CE010E94140812
:10160000F4013496E4912C898C859D85E29F800DB0
:10161000911D11248DCF6F927F928F929F92AF92E6
:10162000BF92CF92DF92EF92FF920F931F93CF93CF
:10163000DF93EC016B015A0139014801E881F9811E
:101640000284F385E02D0995E881F9810288F38908
:10165000E02D87019301A501B601CE010995A501F1
:10166000480D591D41505109E881F9810288F389DB
:10167000E02D9301B601CE010995E881F98100883A
:10168000F189E02D9401A501B601CE010995C60CA2
:10169000D71CB60161507109E881F9810088F18990
:1016A000E02D9401A501CE010995E881F981068814
:1016B000F789E02DCE01DF91CF911F910F91FF901F
:1016C000EF90DF90CF90BF90AF909F908F907F90E2
:1016D0006F9009946F927F928F929F92AF92BF9278
:1016E000CF92DF92EF92FF920F931F93CF93DF93EE
:1016F0005C01EB016A01490138018701DC01ED91D0
:10170000FC916217730719F5641675062CF0962D77
:10171000872D3A01C92ED82E9601261937092F5F39
:101720003F4F048CF58DE02DA301BE01C501099545
:10173000DF91CF911F910F91FF90EF90DF90CF90AD
:10174000BF90AF909F908F907F906F9008954615B7
:10175000570591F42617370724F0892D4B01C22F26
:10176000D82F9E01281939092F5F3F4F068CF78D1E
:10177000E02DA601B401DACF0284F385E02D0995AE
:10178000D501ED91FC910488F589E02D8301940148
:10179000A601BE01C5010995D501ED91FC91068810
:1017A000F789E02DC501DF91CF911F910F91FF9037
:1017B000EF90DF90CF90BF90AF909F908F907F90F1
:1017C0006F900994EF92FF920F931F93DC011A968A
:1017D0000D911C911B9718962D913C911997ED91A5
:1017E000FC9100A0F1A1E02D7B0150E040E070E011
:1017F00060E009951F910F91FF90EF9008954F922F
:101800005F926F927F928F929F92AF92BF92CF9290
:10181000DF92EF92FF920F931F93CF93DF936C01B0
:101820002B015A0139014801DC01ED91FC91028440
:10183000F385E02D0995E201640C751CD601ED914C
:10184000FC91C615D7055CF40088F189E02D87016D
:101850009401A501BE01C60109952196EFCF068826
:10186000F789E02DC601DF91CF911F910F91FF9075
:10187000EF90DF90CF90BF90AF909F908F907F9030
:101880006F905F904F9009948F929F92AF92BF920A
:10189000CF92DF92EF92FF920F931F93CF93DF933C
:1018A000EC015B014A016901E881F9810284F38559
:1018B000E02D099595012C0D3D1D21503109E88140
:1018C000F9810488F589E02D78018401A401B5012E
:1018D000CE010995E881F9810688F789E02DCE01CE
:1018E000DF91CF911F910F91FF90EF90DF90CF90FC
:1018F000BF90AF909F908F9009948F929F92AF92DC
:10190000BF92CF92DF92EF92FF920F931F93CF93EC
:10191000DF93EC015B014A0169017801E881F981FB
:101920000284F385E02D0995C80CD91C860101506D
:101930001109E881F9810488F589E02D9501A40158
:10194000B501CE010995E881F9810688F789E02D76
:10195000CE01DF91CF911F910F91FF90EF90DF901B
:10196000CF90BF90AF909F908F900994EF92FF928D
:101970000F931F93DC01ED91FC9100A0F1A1E02DEC
:1019800009951F910F91FF90EF9008950F931F936A
:10199000DC01ED91FC91068CF78DE02D09951F91EE
:1019A0000F9108950F931F93DC01ED91FC91048C2E
:1019B000F58DE02D09951F910F910895DC01ED91B2
:1019C000FC910084F185E02D09942F923F924F9273
:1019D0005F926F927F928F929F92AF92BF92CF92BF
:1019E000DF92EF92FF920F931F93CF93DF9300D07C
:1019F00000D000D0CDB7DEB73C016A013E832D8315
:101A0000FC82EB825801A41AB50AB7FE03C0B19458
:101A1000A194B1088D809E80861A970A97FE03C014
:101A20009194819491088A149B045CF0902F812FEB
:101A30000D811E819D838E839C2D8D2D6B01692FC1
:101A4000782F0C151D055CF09D818E817E836D8342
:101A5000692F782F902F812F8601C92ED82E16013D
:101A6000201A310A2B012D813E81421A530A57FE5A
:101A700003C0519441945108710137FE03C03FEFF8
:101A8000E31AF30AF594E7948D819E8186179707F0
:101A90005CF5A1E0B0E0BA83A983C016D1064CF191
:101AA000D301ED91FC910484F585E02D2B813C81DF
:101AB000A8016D817E818A149B041CF04D815E819A
:101AC000B801C3010995E418F508F7FE0AC02D8195
:101AD0003E8189819A81280F391F3E832D83E20C34
:101AE000F31C0F5F1F4FD9CF2FEF3FEF3A832983AE
:101AF000D4CF26960FB6F894DEBF0FBECDBFDF91D0
:101B0000CF911F910F91FF90EF90DF90CF90BF90FA
:101B1000AF909F908F907F906F905F904F903F908D
:101B20002F900895089590E080E008950E94E21BB0
:101B3000FB0101900020E9F73197AF01461B570BDD
:101B4000DC01ED91FC910280F381E02D09948F92EC
:101B50009F92AF92BF92EF92FF920F931F93CF93FA
:101B6000DF93CDB7DEB7A1970FB6F894DEBF0FBEF7
:101B7000CDBF7C01FA01CB0119A2223008F42AE082
:101B80008E010F5D1F4F822E912CB12CA12CBF0115
:101B9000A50194010E949617F901CA016A300CF55B
:101BA000605DD8016E938D01232B242B252B79F7B3
:101BB00090E080E0109721F0BD01C7010E94980DD0
:101BC000A1960FB6F894DEBF0FBECDBFDF91CF91C7
:101BD0001F910F91FF90EF90BF90AF909F908F90CB
:101BE0000895695CDECF4F925F926F927F928F92E1
:101BF0009F92AF92BF92CF92DF92EF92FF92CF93DC
:101C0000DF93EC016A017B01AB019601CB01B601C8
:101C10000E944E1A6CE373E081111AC0460157010D
:101C2000E894B7F82FEF3FEF4FE75FE7C501B40146
:101C30000E944E1A811126C02FEF3FEF4FE75FE75A
:101C4000C501B4010E9434181816E4F460E473E08E
:101C5000CE010E94980D7C0168E473E0CE010E94E1
:101C6000980D8E0D9F1DDF91CF91FF90EF90DF902B
:101C7000CF90BF90AF909F908F907F906F905F902C
:101C80004F9008952FEF3FEF4FE75FE4C701B60194
:101C90000E948C1918161CF464E473E0D9CF2FEF5E
:101CA0003FEF4FE75FECC701B6010E94341887FD94
:101CB000F3CF20E030E0A901C701B6010E9434183B
:101CC000B12CA12C87FF09C06DE2CE010E94450511
:101CD0005C01F7FAF094F7F8F0942AE037ED43EA64
:101CE0005BE3C701B6010E94C8172B013C010E94AB
:101CF000AB186B017C010E94DA189B01AC01C30197
:101D0000B2010E94C7172B013C012AE0B701A601CE
:101D1000CE010E94A70D7C01EA0CFB1C6EE2CE01F5
:101D20000E944505E80EF91E20E030E040E251E453
:101D3000C301B2010E94E1192B013C010E94AB18C2
:101D40004B01B12CA12C2AE0B501A401CE010E94C7
:101D5000A70DE80EF91EC501B4010E94DA189B0117
:101D6000AC01C301B2010E94C71720E030E040E29D
:101D700051E40E94E1190E94AB18AB0170E060E0F1
:101D80002AE0CE010E94A70DE80EF91E65CFCF9282
:101D9000DF92EF92FF920F931F93CF93DF938C010B
:101DA0006B01770FEE08FF08F7FE21C06DE20E947D
:101DB0004505EC0144275527BA014C195D096E0908
:101DC0007F092AE0C8010E94A70DC80FD91F68E447
:101DD00073E0C8010E94980D8C0F9D1FDF91CF9179
:101DE0001F910F91FF90EF90DF90CF9008952AE020
:101DF000B701A6010E94A70DEC01E9CF1F93CF9375
:101E0000DF9385ED8093BC0080917B0390917C03F0
:101E1000A0917D03B0917E030796A11DB11D23E023
:101E2000B695A795979587952A95D1F72091BC00EF
:101E300024FD03C01092C30352C040917B03509114
:101E40007C0360917D0370917E03452B462B472BCD
:101E500069F30097A105B10541F02AE22A95F1F74F
:101E600000C00197A109B109E1CF80917A03C1E0D7
:101E7000C0937903882399F1D091B8001091BA00EA
:101E80008091BC008A7B8093BC0060E082E10E946C
:101E90006C0360E083E10E946C031092C303C09363
:101EA000C5031092C40361E082E10E946C0361E00B
:101EB00083E10E946C038091B9008E7F8093B9000A
:101EC0008091B9008D7F8093B90088E48093B80039
:101ED00085E48093BC001093BA00D093B800DF91E2
:101EE000CF911F9108951F920F920FB60F92112458
:101EF0002F933F938F939F93AF93BF9380919004C1
:101F000090919104A0919204B09193043091EE03CA
:101F100023E0230F2D3758F50196A11DB11D209305
:101F2000EE038093900490939104A0939204B09355
:101F300093048091EF039091F003A091F103B0918D
:101F4000F2030196A11DB11D8093EF039093F0035E
:101F5000A093F103B093F203BF91AF919F918F9142
:101F60003F912F910F900FBE0F901F90189526E86C
:101F7000230F0296A11DB11DD2CF1F920F920FB653
:101F80000F9211242F933F934F935F936F937F93FF
:101F90008F939F93AF93BF93EF93FF9383EF93E060
:101FA0000E94CA05FF91EF91BF91AF919F918F91D0
:101FB0007F916F915F914F913F912F910F900FBE45
:101FC0000F901F9018951F920F920FB60F92112429
:101FD0002F938F939F93EF93FF93E0910304F091DE
:101FE00004048081E0910904F0910A0482FD1BC081
:101FF000908180910C048F5F8F7320910D04821764
:1020000041F0E0910C04F0E0ED50FC4F958F80938F
:102010000C04FF91EF919F918F912F910F900FBE24
:102020000F901F9018958081F4CF1F920F920FB6DA
:102030000F9211242F933F934F935F936F937F934E
:102040008F939F93AF93BF93EF93FF938091B900CA
:10205000887F803609F44AC0F0F5883209F4A5C0BB
:1020600018F5803109F499C0B8F4882309F4F5C053
:10207000883009F492C0FF91EF91BF91AF919F9189
:102080008F917F916F915F914F913F912F910F9021
:102090000FBE0F901F901895883109F486C08032CA
:1020A00051F78093C20314C0803409F49BC040F4FC
:1020B0008033B9F38833F9F68093C20385ECAEC060
:1020C000803509F483C0883509F494C0883499F6C2
:1020D0000E94FE0ED0CF883909F48AC038F58837BF
:1020E00029F050F4883611F0803729F683E0809388
:1020F000C3031092C10355C0883809F479C08039F0
:1021000019F0803809F0B7CF8091C103803208F010
:102110006FC0E091C10381E08E0F8093C103809175
:10212000BB00F0E0EF55FC4F80833BC0803B39F0B3
:10213000D0F4803A09F477C0883A09F09CCF84E063
:102140008093C3031092A00310929F03F0E0E0E09D
:10215000099580919F0381110FC081E080939F03B7
:1021600010927F0309C0803C09F4A8CF883C09F491
:10217000A5CF883B09F07FCFE091A00381E08E0FCF
:102180008093A003F0E0E158FC4F80818093BB0076
:102190009091A00380919F0329C08091E8038093D0
:1021A000BB0085EC8093BC0066CF9091E7038091E3
:1021B000E603981758F5E091E70381E08E0F8093CE
:1021C000E703F0E0EA53FC4F8081E9CFE091E703B9
:1021D00081E08E0F8093E7038091BB00F0E0EA532B
:1021E000FC4F80839091E7038091E6039817C8F233
:1021F00085E8D8CFE091E70381E08E0F8093E70375
:102200008091BB00F0E0EA53FC4F80838091C503CE
:1022100081115ECF81E08093C40384EA8093BC0087
:102220001092C30328CF85EC8093BC001092C303A7
:102230008091C103803230F4E091C103F0E0EF55AA
:10224000FC4F10826091C10370E081EA93E0F0E0FE
:10225000E0E009951092C1030ECF1092C20338CF6F
:10226000CF92DF92FF920F931F93CF93DF93E3EF11
:10227000F3E01382128288EE93E0A0E0B0E0848362
:102280009583A683B78382E093E09183808385EC76
:1022900090E09587848784EC90E09787868780EC30
:1022A00090E0918B808B81EC90E0938B828B82EC21
:1022B00090E0958B848B86EC90E0978B868B118ECB
:1022C000128E138E148ECCEDD4E01B821A8224E57C
:1022D00030E03D832C8380E390E09F838E833987B9
:1022E00028879B878A871E8A1D861C861F861E86D6
:1022F000FF24F394FD8AFC8A8FEF9FEF9B8B8A8BE0
:10230000998B888BFF8A188E1A8E198E84E193E040
:10231000998388838CE190E00E94BD1A8C0184E04F
:10232000D8011B968C931B9787E01C968C931C9767
:102330008FEF1E968C931E9786E01D968C931D97AB
:10234000ECE0F6E0E491F0E0EE0FFF1FE250FA4F10
:1023500085919491F801968B858BEEEEF5E0E491F2
:102360005A96EC935A97EEE0F6E0E491F0E0EE0F27
:10237000FF1FE250FA4F85919491F801908B878767
:10238000E0EFF5E0E4915796EC935797EFE0F6E035
:10239000E491F0E0EE0FFF1FE250FA4F8591949127
:1023A000F801928B818BE1EFF5E0E4915996EC9383
:1023B00080E099E0ADE3B0E0F80184839583A683E3
:1023C000B783CC24C394D12CD186C0861286138EB9
:1023D00082E090E00E94BD1A20E5DC012C9311966A
:1023E0001C92F80193838283118210821C8F0B8FC1
:1023F00085E08E8F83E08D8FE0EAF4E088E994E059
:10240000978F868F8CE994E0958F848F84E994E090
:1024100091A380A312AE12AA13AA14AA15AA80E04F
:1024200090E0AFE7B3E486AB97ABA0AFB1AF84E683
:1024300090E0A0E0B0E086A797A7A0ABB1AB118E6B
:10244000108ED38EC28EF3AE80E090E0A0E0B0E4B8
:1024500080839183A283B38340E050E060EA70E41C
:10246000448355836683778340E050E060E87FE3F0
:10247000408751876287738784879587A687B78748
:1024800080E090E0A0E0BFE3808B918BA28BB38BC8
:1024900080E090E0A0E2B1E4848B958BA68BB78BB3
:1024A0002FB7F8948091900490919104A091920498
:1024B000B09193042FBF46A557A560A971A9841BAD
:1024C000950BA60BB70B82A393A3A4A3B5A3DF918F
:1024D000CF911F910F91FF90DF90CF900895CF93F0
:1024E000DF93CDB7DEB762970FB6F894DEBF0FBEAD
:1024F000CDBF789484B5826084BD84B5816084BD8D
:1025000085B5826085BD85B5816085BD80916E0091
:10251000816080936E0010928100809181008260C2
:1025200080938100809181008160809381008091FF
:1025300080008160809380008091B10084608093EE
:10254000B1008091B00081608093B00080917A00EA
:10255000846080937A0080917A00826080937A0010
:1025600080917A00816080937A0080917A008068FF
:1025700080937A001092C100E0910304F09104046A
:1025800082E08083E091FF03F09100041082E091EB
:102590000104F09102048FEC808310920B04E0910F
:1025A0000704F091080486E08083E0910504F0912F
:1025B0000604808180618083E0910504F091060427
:1025C000808188608083E0910504F0910604808119
:1025D00080688083E0910504F091060480818F7DFE
:1025E000808361E082E00E949A0361E088E00E94BB
:1025F0009A038EE00E94CB0320E530E0DC010E94CC
:102600009C1A2FEF33E040E050E00E947717CA0198
:10261000B9010E94DC186093940470939504809330
:102620009604909397048FE00E94CB03BC01990F0E
:10263000880B990B0E94DC1820E030E040EA50E45F
:102640000E94E11920E030EC4FE754E40E94391871
:102650006B017C0120E030E44CE156E40E94E1197A
:102660004B015C01A701960160E070E080EA90E414
:102670000E94C7179B01AC01C501B4010E94391823
:102680006093EA037093EB038093EC039093ED0364
:1026900021EE31EF4BE156E40E9439180E9499195E
:1026A00024E63FEB47E959E30E94E1192FE03FECB4
:1026B0004BE55BE30E94C8179B01AC0160E070E052
:1026C00080E89FE30E94391823E333E948E853E4A4
:1026D0000E94C71760939C0470939D0480939E048E
:1026E00090939F048091DA04811149C0E091BE0467
:1026F000F091BF04C080D180E280F380C092C60414
:10270000D092C704E092C804F092C904E091BC04DE
:10271000F091BD0480819181A281B3818093CA042C
:102720009093CB04A093CC04B093CD048090D604B6
:102730009090D704A090D804B090D904A50194013A
:10274000C701B6010E948C1918164CF48092C60479
:102750009092C704A092C804B092C90410C080909F
:10276000D2049090D304A090D404B090D504A501D5
:102770009401C701B6010E94341887FDE7CF81E0BC
:102780008093DA042091F7043091F8043A83298386
:10279000D9011B968C918F3F49F061E00E949A030A
:1027A00061E0E981FA8183850E946C03A981BA8185
:1027B0008D919C91892B09F44AC31FB7F89480919D
:1027C000E903811127C0E2E1F6E08491E4EFF5E04E
:1027D0009491E82FF0E0EE0FFF1FEE53FA4FA59112
:1027E000B491EC91E92321F461E08AE00E946C034A
:1027F00061E08AE00E949A038CB580618CBD8CB543
:1028000080648CBD61E08DE00E949A0361E08BE002
:102810000E949A038091E9038F5F8093E9031FBFB1
:1028200081E0E981FA81838F61E08091FA040E945E
:102830009A038091F90487FD03C061E00E949A0326
:1028400084E08093FC0488E28093FB041092FD04F2
:102850001092FE040E9477061092FF0480910005FA
:10286000833508F483E5809300051092010580917B
:1028700002058F3208F48FE2809302050E94C7069A
:102880006BE473E083EF93E00E94980D68E473E0DB
:1028900083EF93E00E94980D8EE00E94CB0320E529
:1028A00030E0DC010E949C1A2FEF33E040E050E062
:1028B0000E947717CA01B9010E94DC18AB01BC0164
:1028C00040939404509395046093960470939704F6
:1028D00083EF93E00E94F30D64EF71E080E090E0FD
:1028E0000E94130580E10E94CB0324E630E0DC0166
:1028F0000E949C1A2FEF33E040E050E00E947717CF
:102900002D873E874F87588B6D857E8583EF93E0BB
:102910000E94C70E64EF71E080E090E00E94130512
:102920008FE00E94CB03BC01990F880B990B0E948A
:10293000DC1820E030E040EA50E40E94E11920E099
:1029400030EC4FE754E40E9439186B017C0120E021
:1029500030E44CE156E40E94E1194B015C01A7010F
:10296000960160E070E080EA90E40E94C7179B0146
:10297000AC01C501B4010E9439186B017C01C09201
:10298000EA03D092EB03E092EC03F092ED0364EFE4
:1029900071E080E090E00E94130521EE31EF4BE101
:1029A00056E4C701B6010E9439180E94991924E61D
:1029B0003FEB47E959E30E94E1192FE03FEC4BE57B
:1029C0005BE30E94C8179B01AC0160E070E080E807
:1029D0009FE30E94391823E333E948E853E40E9457
:1029E000C717AB01BC0140939C0450939D046093B6
:1029F0009E0470939F0483EF93E00E94F30D64EFB5
:102A000071E080E090E00E9413058091DA04882351
:102A100009F42FC18FB7F89420919004309191045C
:102A2000409192045091930429873A874B875C87A1
:102A30008FBF8091C2049091C304A091C404B0914F
:102A4000C50449855A856B857C85481B590B6A0BE3
:102A50007B0B8091CE049091CF04A091D004B091D3
:102A6000D104481759076A077B0708F402C1E091AF
:102A7000BC04F091BD044080518062807380E0917D
:102A8000C004F091C104A30192016081718182812F
:102A900093810E94C7176B017C012091CA04309179
:102AA000CB044091CC045091CD04C301B2010E94EB
:102AB000C71769837A838B839C832091B0043091FC
:102AC000B1044091B2045091B304C701B6010E9411
:102AD000E1192091C6043091C7044091C804509177
:102AE000C9040E94C8174B015C018092C6049092F1
:102AF000C704A092C804B092C9043090DB0431101E
:102B00001CC02091AC043091AD044091AE045091B2
:102B1000AF0469817A818B819C810E94E1199B01BC
:102B2000AC01C501B4010E94C7176093C60470933D
:102B3000C7048093C8049093C9048091C6049091FF
:102B4000C704A091C804B091C9048D839E83AF834C
:102B5000B8870091D6041091D7049091D8049A8B2D
:102B6000A091D904A98B9801492F5A2F6D817E819C
:102B70008F8198850E948C1918160CF099C1C80194
:102B8000AA89B9898093C6049093C704A093C80406
:102B9000B093C904332009F4A6C12091AC0430914C
:102BA000AD044091AE045091AF04C701B6010E943C
:102BB000E1196B017C012091B4043091B50440917E
:102BC000B6045091B70469817A818B819C810E94FF
:102BD000E1199B01AC016091C6047091C70480911A
:102BE000C8049091C9040E94C717A70196010E94CA
:102BF000C8176B017C019B01AC01B8018A899989D6
:102C00000E94341887FD16C00091D2041091D3049D
:102C1000B091D404BA8BE091D504E98B98014B2F85
:102C20005E2FB601C7010E94341887FD03C08601DC
:102C3000EA8AF98AE091BE04F091BF04C801AA892A
:102C4000B98980839183A283B3834092CA0450924E
:102C5000CB046092CC047092CD0429853A854B85D3
:102C60005C852093C2043093C3044093C404509302
:102C7000C504409198045091990460919A04709110
:102C80009B0483EF93E00E94F30D6CE271E080E01F
:102C900090E00E941305A0E0B1E0E8EFF1E01D92A2
:102CA0003197E9F71092FF0480910005833508F40D
:102CB00083E58093000510920105809102058F3213
:102CC00008F48FE2809302051092E9041092E80460
:102CD0001092EB041092EA0460E573E08CED94E04E
:102CE0000E94980D4091940450919504609196042F
:102CF000709197048CED94E00E94F30D68E573E009
:102D00008CED94E00E94980D6D857E858CED94E0AD
:102D10000E94C70E62E673E08CED94E00E94980D6D
:102D2000409198045091990460919A0470919B0489
:102D30008CED94E00E94F30D6CE673E08CED94E072
:102D40000E94980D40919C0450919D0460919E04B6
:102D500070919F048CED94E00E94F30D0E94C706D1
:102D600020E030E040EF51E460919C0470919D04BC
:102D700080919E0490919F040E94341861E018167F
:102D80000CF460E082E00E946C0320E030E048E256
:102D900052E460919C0470919D0480919E049091F6
:102DA0009F040E948C1961E087FD60E088E00E942A
:102DB0006C03EEEDF5E08491ECEFF5E0F491F9832E
:102DC000EAE1F6E0F491FD83FF23A1F181110E9475
:102DD00043032D81E22FF0E0EE0FFF1FE052FA4F88
:102DE000A591B4918C913981382321F183EF93E03F
:102DF0000E943906E0910504F091060480818F7EDF
:102E00008083E0910504F09106048081877F8083B0
:102E1000E0910504F091060480818F778083E09132
:102E20000504F091060480818F7D808380910D04DC
:102E300080930C0440E050E0452B09F421CD0E9422
:102E4000B605882309F41CCD0E94000019CD61E06D
:102E5000E981FA8184850E949A03A981BA811A9630
:102E60008C911A978B7FF9F460E01C968C910E94EC
:102E70006C03A981BA811D968C918F3F49F061E066
:102E80000E949A0361E0E981FA8185850E946C03C2
:102E9000A981BA811E968C918F3F09F4C1CC60E064
:102EA0000E949A03BDCC61E0E981FA818485DFCF7D
:102EB0008090D2049090D304A090D404B090D50414
:102EC000A50194016D817E818F8198850E943418BF
:102ED00087FF60CE8092C6049092C704A092C80477
:102EE000B092C90457CEC12CD12C760164CE052EE8
:102EF00097FB1EF400940E948E1757FD07D00E9486
:102F0000961707FC03D04EF40C948E1750954095FD
:102F1000309521953F4F4F4F5F4F08959095809585
:102F2000709561957F4F8F4F9F4F0895A1E21A2EA4
:102F3000AA1BBB1BFD010DC0AA1FBB1FEE1FFF1F5D
:102F4000A217B307E407F50720F0A21BB30BE40BAD
:102F5000F50B661F771F881F991F1A9469F76095F4
:102F60007095809590959B01AC01BD01CF010895AE
:102F7000A29FB001B39FC001A39F700D811D1124BA
:102F8000911DB29F700D811D1124911D08955058FF
:102F9000BB27AA270E94DF170C9452190E944419DC
:102FA00038F00E944B1920F039F49F3F19F426F4B1
:102FB0000C9441190EF4E095E7FB0C943B19E92FB2
:102FC0000E94631958F3BA176207730784079507BD
:102FD00020F079F4A6F50C9485190EF4E0950B2EEB
:102FE000BA2FA02D0B01B90190010C01CA01A0015B
:102FF0001124FF27591B99F0593F50F4503E68F1B6
:103000001A16F040A22F232F342F4427585FF3CFF6
:10301000469537952795A795F0405395C9F77EF4C7
:103020001F16BA0B620B730B840BBAF09150A1F010
:10303000FF0FBB1F661F771F881FC2F70EC0BA0F96
:10304000621F731F841F48F4879577956795B7951E
:10305000F7959E3F08F0B0CF9395880F08F0992719
:10306000EE0F9795879508950E94171908F481E04F
:1030700008950E944D180C9452190E944B1958F053
:103080000E94441940F029F45F3F29F00C943B1949
:1030900051110C9486190C9441190E94631968F31C
:1030A0009923B1F3552391F3951B550BBB27AA2701
:1030B00062177307840738F09F5F5F4F220F331F3B
:1030C000441FAA1FA9F335D00E2E3AF0E0E832D003
:1030D00091505040E695001CCAF72BD0FE2F29D006
:1030E000660F771F881FBB1F261737074807AB07D8
:1030F000B0E809F0BB0B802DBF01FF2793585F4F4D
:103100003AF09E3F510578F00C943B190C948619C7
:103110005F3FE4F3983ED4F3869577956795B7952E
:10312000F7959F5FC9F7880F911D9695879597F939
:103130000895E1E0660F771F881FBB1F62177307B2
:103140008407BA0720F0621B730B840BBA0BEE1FC7
:1031500088F7E09508950E946B1988F09F5798F0C2
:10316000B92F9927B751B0F0E1F0660F771F881F8C
:10317000991F1AF0BA95C9F714C0B13091F00E94A6
:103180008519B1E008950C948519672F782F882749
:10319000B85F39F0B93FCCF3869577956795B395CD
:1031A000D9F73EF490958095709561957F4F8F4F3C
:1031B0009F4F0895E89409C097FB3EF49095809541
:1031C000709561957F4F8F4F9F4F9923A9F0F92FED
:1031D00096E9BB279395F695879577956795B7956B
:1031E000F111F8CFFAF4BB0F11F460FF1BC06F5F51
:1031F0007F4F8F4F9F4F16C0882311F096E911C063
:10320000772321F09EE8872F762F05C0662371F083
:1032100096E8862F70E060E02AF09A95660F771F97
:10322000881FDAF7880F9695879597F90895990F73
:103230000008550FAA0BE0E8FEEF16161706E80780
:10324000F907C0F012161306E407F50798F0621BA1
:10325000730B840B950B39F40A2661F0232B242B76
:10326000252B21F408950A2609F4A140A6958FEF95
:10327000811D811D089597F99F6780E870E060E0E7
:1032800008959FEF80EC089500240A9416161706FF
:1032900018060906089500240A9412161306140647
:1032A00005060895092E0394000C11F4882352F0AA
:1032B000BB0F40F4BF2B11F460FF04C06F5F7F4F62
:1032C0008F4F9F4F089557FD9058440F551F59F049
:1032D0005F3F71F04795880F97FB991F61F09F3F03
:1032E00079F087950895121613061406551FF2CF2C
:1032F0004695F1DF08C0161617061806991FF1CF7C
:1033000086957105610508940895E894BB276627A2
:103310007727CB0197F908950E94171908F48FEFCA
:10332000089516F00C94531A0C94411968940C9457
:103330003B190E946B19A8F39923C1F3AEF3DF93F5
:10334000CF931F930F93FF92C92FDD2788232AF075
:103350002197660F771F881FDAF720E030E040E8FA
:103360005FEB9FE3883920F0803E38F021968F771D
:103370000E94C817E8E6F0E004C00E94C817E5E91B
:10338000F0E00E94611A8B01BE01EC01FB2E6F5729
:1033900071097595771F880B990B0E94DC1828E13D
:1033A00032E741E35FE30E94F419AF2D9801AE01CB
:1033B000FF900F911F91CF91DF910E94DF170C9426
:1033C00052190E94F4190C9452190E94441938F0B1
:1033D0000E944B1920F0952311F00C943B190C948A
:1033E000411911240C9486190E94631970F3959F5A
:1033F000C1F3950F50E0551F629FF001729FBB27EC
:10340000F00DB11D639FAA27F00DB11DAA1F649F87
:103410006627B00DA11D661F829F2227B00DA11D3A
:10342000621F739FB00DA11D621F839FA00D611DC0
:10343000221F749F3327A00D611D231F849F600DE1
:10344000211D822F762F6A2F11249F5750409AF00A
:10345000F1F088234AF0EE0FFF1FBB1F661F771F96
:10346000881F91505040A9F79E3F510580F00C9461
:103470003B190C9486195F3FE4F3983ED4F386958C
:1034800077956795B795F795E7959F5FC1F7FE2B01
:10349000880F911D9695879597F908950E941719A1
:1034A000880B990B08959F3F31F0915020F4879538
:1034B00077956795B795880F911D9695879597F99C
:1034C0000895DF93CF931F930F93FF92EF92DF92B4
:1034D0007B018C01689406C0DA2EEF010E94F4197A
:1034E000FE01E894A5912591359145915591A6F35A
:1034F000EF010E94DF17FE019701A801DA9469F736
:10350000DF90EF90FF900F911F91CF91DF91089581
:1035100097FB072E16F4009407D077FD09D00E9480
:10352000A31A07FC05D03EF4909581959F4F08950E
:10353000709561957F4F08950E94B817B7FF089561
:10354000821B930B0895AA1BBB1B51E107C0AA1F46
:10355000BB1FA617B70710F0A61BB70B881F991F34
:103560005A95A9F780959095BC01CD010895EE0F6D
:10357000FF1F0590F491E02D09940F931F93CF93B3
:10358000DF938230910510F482E090E0E091050530
:10359000F091060530E020E0B0E0A0E0309799F42B
:1035A0002115310509F44AC0281B390B2430310597
:1035B000D8F58A819B816115710589F1FB0193839F
:1035C0008283FE0111C0408151810281138148171D
:1035D0005907E0F04817590799F4109761F01296CF
:1035E0000C93129713961C933296CF01DF91CF91D3
:1035F0001F910F9108950093050510930605F4CFD0
:103600002115310551F04217530738F0A901DB01AC
:103610009A01BD01DF01F801C1CFEF01F9CF90930D
:10362000060580930505CDCFFE01E20FF31F8193C0
:1036300091932250310939832883D7CF20910305F4
:1036400030910405232B41F42091FA023091FB02C2
:1036500030930405209303052091F8023091F9027C
:103660002115310541F42DB73EB74091FC02509130
:10367000FD02241B350BE0910305F0910405E217D0
:10368000F307A0F42E1B3F0B2817390778F0AC0185
:103690004E5F5F4F2417350748F04E0F5F1F509362
:1036A000040540930305819391939FCFF0E0E0E000
:1036B0009CCFCF93DF930097E9F0FC013297138200
:1036C0001282A0910505B0910605ED0130E020E0E1
:1036D0001097A1F420813181820F931F209103055F
:1036E000309104052817390709F061C0F0930405EB
:1036F000E0930305DF91CF910895EA01CE17DF072C
:10370000E8F54A815B819E0141155105B1F7E90158
:10371000FB83EA8349915991C40FD51FEC17FD072C
:1037200061F4808191810296840F951FE90199834C
:103730008883828193819B838A83F0E0E0E0129604
:103740008D919C9113970097B9F52D913C9111970C
:10375000CD010296820F931F20910305309104053D
:103760002817390739F6309751F51092060510924F
:103770000505B0930405A0930305BCCFD383C28392
:1037800040815181840F951FC817D90761F44E5F9E
:103790005F4F88819981480F591F518340838A81E7
:1037A0009B81938382832115310509F0B0CFF0937B
:1037B0000605E09305059ECFFD01DC01C0CF138215
:1037C0001282D7CF81E090E0F8940C94E71BF89434
:0237D000FFCF29
:1037D20000000000000000000000000000000000E7
:1037E20000000000000000000000000000000000D7
:1037F200000000000000C0E0F0F8FCFCFEFFFCE06E
:1038020000000000000000000000000000000000B6
:1038120000000000000000000000000000000000A6
:103822000000000000000000000000000000000096
:103832000000000000F8F8F8F8F8F8F8F8F8F8F8DE
:10384200F8F0F0E0E0C080C0FCFFFFFFFF7F3F7FA9
:10385200FFFFFFFFFF00000000000000000000006B
:103862000000000000000000000000000000000056
:103872000000000000000000000000000000000046
:10388200000000000000000000000F1F3F7FFFFF4C
:10389200FFFFFFFFFFFFE7C7C7878F9F9FFFFFFF66
:1038A200C1C0E0FCFFFFFFFFFFFCFCFCFCFEFEFED4
:1038B200FCFCF8F8F0E0C0C00000000000000000CE
:1038C20000000000000000000000000000000000F6
:1038D20000000000000000000000000000000000E6
:1038E2000080C0E0F1FBFFFFFFFFFF7F1F0F0F878C
:1038F200E7FFFFFF1F1F3FF9F8F8F8F8F8F8FDFFA0
:10390200FFFFFFFFFFFFFFFF7F3F0F0701000000E8
:1039120000000000000000000000000000000000A5
:103922000000000000000000000000000000000095
:10393200000000F0FEFFFFFFFFFFFFFFFFFFFFFEA3
:103942007E3F3F0F1FFFFFFFFCF0E0F1FFFFFFFF95
:10395200FFFCF00101010101010101000000000072
:103962000000000000000000000000000000000055
:103972000000000000000000000000000000000045
:10398200000000000000000303030303030303011C
:1039920001010100000000000000030F1F3F7F7FB4
:1039A200FFFFFFFF7F7F1F030000000000000000F9
:1039B2000000000000000000000000000000000005
:1039C2000000000000000000000007058000000069
:1039D2000000EC054C0579053906AA0588059C0509
:1039E20000000000390A4C05930D920D3D07D407E3
:1039F200DE0CB60CD20CC60CE50CD407FF072C0764
:103A02007D0C440CFF0BE20B6A0B0B0B6E616E001C
:103A1200696E66006F7666000D0A006C6F6F70004B
:103A220054206F702E3A200048756D656461643AC7
:103A32002000436F6E74726F6C3A200054207365DD
:083A42006E7365643A20000078
:00000001FF
