:1000000014C01BC01BC019C018C017C016C015C033
:1000100014C013C012C011C010C00FC00EC00DC05C
:100020000CC00BC00AC009C008C011241FBECFE518
:10003000D1E0DEBFCDBF1ED024C0E2CF1F920F9211
:100040000FB60F9211242F938F939F9388E088BB54
:100050002FE786E998E9215080409040E1F700C001
:10006000000018BA9F918F912F910F900FBE0F90A3
:100070001F901895789488E087BB8BB780688BBFFA
:06008000FFCFF894FFCF52
:00000001FF
